:1000000071C0000086C0000084C0000082C00000F3
:1000100080C000007EC000007CC000007AC00000EC
:1000200078C0000076C0000074C0000072C00000FC
:1000300070C000006EC000006CC000006AC000000C
:1000400068C0000066C0000064C0000062C000001C
:1000500060C000005EC000005CC000005AC000002C
:1000600058C0000056C0000054C0000052C000003C
:1000700050C000004EC000004CC000004AC000004C
:1000800048C0000046C0000044C0000042C000005C
:1000900040C000003EC000003CC000003AC000006C
:1000A00038C0000036C0000034C0000032C000007C
:1000B00030C000002EC000002CC000002AC000008C
:1000C00028C0000026C0000057C1000022C0000068
:1000D00020C000001EC000001CC000001AC00000AC
:1000E00018C0000011241FBECFEFD1E2DEBFCDBF8C
:1000F00000E00CBF12E0A0E0B2E0E4E6F5E000E0D2
:100100000BBF02C007900D92A038B107D9F767D195
:1001100027C276CFE1E2F1E080818560808385EEC1
:1001200099EF909325018093240181E080937300DF
:10013000089588E18093C10086E08093C20083E047
:1001400090E09093C5008093C4000895F2DFE2DF51
:10015000789408959091C00095FFFCCF8093C600DD
:1001600008958091C00085FFFCCF8AE08093C6008F
:100170000895CF93DF93EC0102C0ECDF21968881D4
:100180008111FBCFDF91CF910895CF93C0E00CC0D8
:10019000EC2FF0E0EE0FFF1FEC5BFD4F0190F081C4
:1001A000E02D8081D7DFCF5FC23190F3CF910895EA
:1001B000CF93DF93C0E00CC0EC2FF0E0EE0FFF1FF9
:1001C000E85EFD4F0190F081E02D8081C3DFCF5FBD
:1001D000C33090F3C8E1D2E0EE81FF818081BADFC5
:1001E000EE81FF818181B6DFE885F9858081B2DF0C
:1001F000E885F9858181AEDFC5E00CC0EC2FF0E029
:10020000EE0FFF1FE85EFD4F0190F081E02D808131
:10021000A1DFCF5FC83090F3C8E1D2E0E889F98967
:10022000808198DFE889F989818194DFEA89FB89F7
:10023000808190DFEA89FB8981818CDFEC89FD89EF
:10024000808188DFEC89FD89818184DFCBE00CC06F
:10025000EC2FF0E0EE0FFF1FE85EFD4F0190F08104
:10026000E02D808177DFCF5FCE3090F3C8E1D2E020
:10027000EC8DFD8D80816EDFEC8DFD8D81816ADFDF
:10028000EE8DFF8D808166DFEE8DFF8D818162DFD7
:10029000C0E10CC0EC2FF0E0EE0FFF1FE85EFD4F59
:1002A0000190F081E02D808155DFCF5FC33190F365
:1002B000C8E1D2E0EEA1FFA180814CDFEEA1FFA159
:1002C000818148DFE8A5F9A5808144DFE8A5F9A58B
:1002D000818140DFEAA5FBA580813CDFEAA5FBA583
:1002E000818138DFDF91CF910895CF93C0E00CC0BA
:1002F000EC2FF0E0EE0FFF1FE45FFD4F0190F08167
:10030000E02D808127DFCF5FC63090F3CF91089535
:10031000CF93C0E00CC0EC2FF0E0EE0FFF1FEA5FC0
:10032000FD4F0190F081E02D808114DFCF5FC3305D
:1003300090F3CF910895CF93C0E00CC0EC2FF0E084
:10034000EE0FFF1FE050FE4F0190F081E02D808105
:1003500001DFCF5FC33090F3CF9108958CE692E038
:1003600008DFFFDE12DF24DFC0DFD2DFE4DF88E654
:1003700092E0FFDEF6CE08951F920F920FB60F9215
:1003800011240BB60F922F933F934F935F936F936C
:100390007F938F939F93AF93BF93EF93FF9385EEDC
:1003A00099EF9093250180932401D8DFFF91EF917D
:1003B000BF91AF919F918F917F916F915F914F917D
:1003C0003F912F910F900BBE0F900FBE0F901F907B
:1003D00018958FEF81B912B817B886B90895B6DEAF
:1003E000F8DF86B1823041F0843051F0813059F429
:1003F00061E083E473D007C061E08CE46FD003C098
:1004000062E088E402D012B8ECCF883409F446C028
:10041000873521F0863409F060C020C0462F50E0B7
:10042000542F4427550F60E070E014C0FC01E558DC
:10043000FD4F208122B9EFEDFEE23197F1F700C0C8
:100440000000019602C080E090E08430910570F3D6
:100450006F5F7F4F64177507B0F30895462F50E024
:10046000542F4427550F60E070E014C0FC01E95898
:10047000FD4F208122B9EFEDFEE23197F1F700C088
:100480000000019602C080E090E08430910570F396
:100490006F5F7F4F64177507B0F30895462F50E0E4
:1004A000542F4427550F60E070E014C0FC01E1595F
:1004B000FD4F208122B9EFEDFEE23197F1F700C048
:1004C0000000019602C080E090E08830910570F352
:1004D0006F5F7F4F64177507B0F30895833419F089
:1004E0008C3401F1089570E0762F6627770F40E095
:1004F00050E014C0FC01E958FD4F208122B9EFED16
:10050000FEE23197F1F700C00000019602C080E0E2
:1005100090E08430910570F34F5F5F4F46175707A7
:10052000B0F3089570E0762F6627770F40E050E033
:1005300013C0FC01E958FD4F208122B9EFEDFEE226
:100540003197F1F700C00000019702C084E090E00D
:10055000009779F74F5F5F4F46175707B8F3089535
:04056000F894FFCF3D
:1005640069006A003D007A007B007C00C000C10085
:10057400C200C800C900CA00440045006E0047001C
:100584004800800081006F0088008A008C00B00061
:10059400B1007000B300B4009000910071009800A5
:1005A4009A009C0021002200200027002800260039
:1005B4000A010B0109012A002B0029003000310037
:1005C4002F00070108010601454E44005354000959
:1005D40001030206040C0803060C090102040800C6
:00000001FF
