:1000000071C0000081C000007FC000007DC0000002
:100010007BC0000079C0000077C0000075C0000000
:1000200073C0000071C000006FC000006DC0000010
:100030006BC0000069C0000067C0000065C0000020
:1000400063C0000061C000005FC000005DC0000030
:100050005BC0000059C0000057C0000055C0000040
:1000600053C000000FC100004FC000004DC0000091
:100070004BC0000049C0000047C0000045C0000060
:1000800043C0000041C000003FC000003DC0000070
:100090003BC0000039C0000037C0000035C0000080
:1000A00033C0000031C000002FC000002DC0000090
:1000B0002BC0000029C0000027C0000025C00000A0
:1000C00023C0000021C000001FC000001DC00000B0
:1000D0001BC0000019C0000017C0000015C00000C0
:1000E00013C0000011241FBECFEFD1E2DEBFCDBF91
:1000F00000E00CBF22E0A0E0B2E001C01D92AF31F1
:10010000B207E1F775D0FBC07BCF8FEF80930A0178
:1001100010920B0197E09AB981B912B80895813015
:1001200011F48BB901C01BB88BB184608BB960939B
:100130000B0187EC90E00197F1F700C000008BB154
:1001400081708BB987EC90E00197F1F700C0000057
:1001500008952FE785EB91E0215080409040E1F732
:1001600000C0000068E380E0DADF87EC90E00197F0
:10017000F1F700C000006CE080E0D1DF87EC90E098
:100180000197F1F700C0000061E080E0C8DF8FE375
:100190009FE10197F1F700C0000066E080E0BFCF6B
:1001A0000895FC0181E08BB919C08BB184608BB9D3
:1001B0009F012F5F3F4F808180930B0187EC90E080
:1001C0000197F1F700C000008BB181708BB987EC0B
:1001D00090E00197F1F700C00000F90180818111E2
:1001E000E4CF08958FEF81B912B817B888B9089590
:1001F0008CDFF8DF36D0ADDF61E080E090DF8FE3A9
:100200009FE10197F1F700C0000062E080E087DF26
:100210008FE39FE10197F1F700C0000065E880E0FF
:100220007EDF60EC80E07BDF87EC90E00197F1F708
:1002300000C0000080911C0290911D020197D1F72F
:1002400010921D0210921C0261E080E068DF87ECD2
:1002500090E00197F1F700C0000083E092E0A1DF99
:10026000E9CF1DB88FEF8EB978941092C00098E94D
:100270009093C10096E09093C2008093C4001092C6
:10028000C50008951F920F920FB60F9211240BB65E
:100290000F928F939F93EF93FF938091C60080936B
:1002A0001E0280911E028D3069F080910002E82FBD
:1002B000F0E090911E02ED5FFD4F90838F5F809381
:1002C00000020CC080911E028D3041F4E0910002CA
:1002D000F0E0ED5FFD4F10821092000281E090E0AF
:1002E00090931D0280931C02FF91EF919F918F913B
:1002F0000F900BBE0F900FBE0F901F901895F894A3
:02030000FFCF2D
:00000001FF
