S0170000576173685F4D435F5379735F4465762E737265636F
S113000071C0000086C0000084C0000082C00000EF
S113001080C000007EC000007CC000007AC00000E8
S113002078C0000076C0000074C0000072C00000F8
S113003070C000006EC000006CC000006AC0000008
S113004068C0000066C0000064C0000062C0000018
S113005060C000005EC000005CC000005AC0000028
S113006058C0000056C0000054C0000052C0000038
S113007050C000004EC000004CC000004AC0000048
S113008048C0000046C0000044C0000042C0000058
S113009040C000003EC000003CC000003AC0000068
S11300A038C0000036C0000034C0000032C0000078
S11300B030C000002EC000002CC000002AC0000088
S11300C028C0000026C00000A1C0000022C000001B
S11300D020C000001EC000001CC000001AC00000A8
S11300E018C0000011241FBECFEFD1E2DEBFCDBF88
S11300F000E00CBF12E0A0E0B2E0EEE3F6E000E0C6
S11301000BBF02C007900D92A037B107D9F702D0F8
S113011094C276CFCF93DF931F92CDB7DEB723D0AF
S113012088E290E021E0FC012083198217C00000DE
S113013080E290E0FC018081882F90E08071992713
S1130140892BB1F380E290E0FC018081882F90E05C
S113015088709927892B11F081E08983898188230C
S113016031F324D0E2CFCF93DF93CDB7DEB781E272
S113017090E0FC01108280E290E02FEFFC012083EC
S113018087E290E02FEFFC01208388E290E0FC01FD
S113019010828AE091E02FEFFC0120838BE091E054
S11301A0FC0110820000DF91CF910895CF93DF937B
S11301B0CDB7DEB7000080E290E0FC01808188309A
S11301C0D1F380E290E0FC018081882F90E08A30B6
S11301D0910591F08C30910519F0099739F013C00D
S11301E088E290E024E0FC0120830CC088E290E0E7
S11301F022E0FC01208306C088E290E026E0FC01B6
S1130200208300000000DF91CF9108951F920F9288
S113021000905F000F92112400905B000F922F93C7
S11302203F934F935F936F937F938F939F93AF937A
S1130230BF93EF93FF93CF93DF93CDB7DEB784E201
S113024091E025EE39EFFC0131832083E1D10000F8
S1130250DF91CF91FF91EF91BF91AF919F918F91DA
S11302607F916F915F914F913F912F910F900092E9
S11302705B000F9000925F000F901F901895CF9332
S1130280DF931F92CDB7DEB78983000080EC90E046
S1130290FC018081882F90E080729927892BB1F32B
S11302A086EC90E02981FC01208300000F90DF910F
S11302B0CF910895CF93DF93CDB7DEB7000080ECE4
S11302C090E0FC018081882F90E080729927892B2F
S11302D0B1F386EC90E02AE0FC0120830000DF917A
S11302E0CF910895CF93DF931F921F92CDB7DEB7BE
S11302F09A8389830AC089819A81FC018081BFDF46
S113030089819A8101969A83898389819A81FC01E2
S11303108081882381F700000F900F90DF91CF91A7
S11303200895CF93DF931F92CDB7DEB7198210C023
S11303308981882F90E0880F991F895F9D4FFC0168
S113034080819181FC0180819ADF89818F5F89831B
S11303508981823168F300000F90DF91CF91089575
S1130360CF93DF9300D01F92CDB7DEB7198210C0B0
S11303708981882F90E0880F991F855D9D4FFC012E
S113038080819181FC0180817ADF89818F5F8983FB
S11303908981833068F38091310290913202FC01AB
S11303A080816DDF80913102909132020196FC01CF
S11303B0808165DF8091330290913402FC01808159
S11303C05EDF80913302909134020196FC018081BA
S11303D056DF85E08A8310C08A81882F90E0880FD9
S11303E0991F855D9D4FFC0180819181FC01808175
S11303F046DF8A818F5F8A838A81883068F380919F
S11304003B0290913C02FC01808139DF80913B02E8
S113041090913C020196FC01808131DF80913D0284
S113042090913E02FC0180812ADF80913D029091EF
S11304303E020196FC01808122DF80913F0290916F
S11304404002FC0180811BDF80913F0290914002B9
S11304500196FC01808113DF8BE08B8310C08B81BC
S1130460882F90E0880F991F855D9D4FFC01808146
S11304709181FC01808103DF8B818F5F8B838B8172
S11304808E3068F38091470290914802FC0180818C
S1130490F6DE80914702909148020196FC0180812A
S11304A0EEDE8091490290914A02FC018081E7DEF0
S11304B08091490290914A020196FC018081DFDE1D
S11304C080E18C8310C08C81882F90E0880F991F65
S11304D0855D9D4FFC0180819181FC018081CFDE8F
S11304E08C818F5F8C838C81833168F3809151027E
S11304F090915202FC018081C2DE80915102909160
S113050052020196FC018081BADE809153029091DF
S11305105402FC018081B3DE809153029091540215
S11305200196FC018081ABDE8091550290915602C8
S1130530FC018081A4DE80915502909156020196BF
S1130540FC0180819CDE00000F900F900F900F90B3
S1130550DF91CF910895CF93DF931F92CDB7DEB78C
S1130560198210C08981882F90E0880F991F895AB9
S11305709D4FFC0180819181FC01808180DE898115
S11305808F5F89838981863068F300000F90DF9143
S1130590CF910895CF93DF931F92CDB7DEB7198221
S11305A010C08981882F90E0880F991F8D599D4F25
S11305B0FC0180819181FC01808161DE89818F5FF2
S11305C089838981833068F300000F90DF91CF9194
S11305D00895CF93DF931F92CDB7DEB7198210C071
S11305E08981882F90E0880F991F87599D4FFC01BE
S11305F080819181FC01808142DE89818F5F8983C2
S11306008981833068F300000F90DF91CF910895C2
S1130610CF93DF93CDB7DEB780E092E063DE4ADEAE
S113062080DE9EDE98DFB6DFD4DF83E092E05ADE20
S111063041DE0000DF91CF910895F894FFCFD2
S113063E535400454E440021002200200027002878
S113064E0026000A010B0109012A002B00290030A3
S113065E0031002F00070108010601440045006E19
S113066E0047004800800081006F0088008A008CDB
S113067E00B000B1007000B300B40090009100719E
S113068E0098009A009C00C000C100C200C800C9B6
S113069E00CA007A007B007C0069006A003D0000FD
S9030000FC
