:1000000071C000008EC000008CC000008AC00000DB
:1000100088C0000086C0000084C0000082C00000CC
:1000200080C000007EC000007CC000007AC00000DC
:1000300078C0000076C0000074C0000072C00000EC
:1000400070C000006EC000006CC000006AC00000FC
:1000500068C0000066C0000064C0000062C000000C
:1000600060C000005EC000005CC000005AC000001C
:1000700058C0000056C0000054C0000052C000002C
:1000800050C000004EC000004CC000004AC000003C
:1000900048C0000046C0000044C0000042C000004C
:1000A00040C000003EC000003CC000003AC000005C
:1000B00038C0000036C0000034C0000032C000006C
:1000C00030C000002EC000002CC000002AC000007C
:1000D00028C0000026C0000024C0000022C000008C
:1000E00020C0000011241FBECFEFD1E2DEBFCDBF84
:1000F00000E00CBF12E0A0E0B2E0ECEBF1E000E0C9
:100100000BBF02C007900D92A630B107D9F722E0CD
:10011000A6E0B2E001C01D92AC30B207E1F743D0D7
:100120004BC06ECF1FBAF999FECF92BD81BD60BDA5
:10013000FA9AF99A08950F931F93CF93C82FFB0152
:100140006081662361F08F010F5F1F4F8C2F90E05D
:10015000E9DFCF5FF80161918F016111F7CFCF9196
:100160001F910F910895F999FECF92BD81BDF89A24
:1001700080B508950F931F93CF93DF93C82FD0E0DE
:10018000FB01319780818F3F49F08B01CE01EBDF7E
:10019000F80181938F0121968F3FC1F7DF91CF91B5
:1001A0001F910F91089560E072E080E0C4DF66E087
:0C01B00072E080E0DFDFF7CFF894FFCFB3
:0601BC00537472696E67C6
:00000001FF
