S00E00004C6162365F372E737265633B
S113000071C0000086C0000084C0000082C00000EF
S113001080C000007EC000007CC000007AC00000E8
S113002078C0000076C0000074C0000072C00000F8
S113003070C000006EC000006CC000006AC0000008
S113004068C0000066C0000064C0000062C0000018
S113005060C000005EC000005CC000005AC0000028
S113006058C0000056C0000054C0000052C0000038
S113007050C000004EC000004CC000004AC0000048
S113008048C0000046C0000044C0000042C0000058
S113009040C000003EC000003CC000003AC0000068
S11300A038C0000036C0000034C0000032C0000078
S11300B030C000002EC000002CC000002AC0000088
S11300C028C0000026C0000057C1000022C0000064
S11300D020C000001EC000001CC000001AC00000A8
S11300E018C0000011241FBECFEFD1E2DEBFCDBF88
S11300F000E00CBF12E0A0E0B2E0EEE3F8E000E0C4
S11301000BBF02C007900D92A037B107D9F7E3D116
S113011094C376CFE1E2F1E080818560808385EE4F
S113012099EF909325018093240181E080937300DB
S1130130089588E18093C10086E08093C20083E043
S113014090E09093C5008093C4000895F2DFE2DF4D
S1130150789408959091C00095FFFCCF8093C600D9
S113016008958091C00085FFFCCF8AE08093C6008B
S11301700895CF93DF93EC0102C0ECDF21968881D0
S11301808111FBCFDF91CF910895CF93C0E00CC0D4
S1130190EC2FF0E0EE0FFF1FEC5BFD4F0190F081C0
S11301A0E02D8081D7DFCF5FC23190F3CF910895E6
S11301B0CF93DF93C0E00CC0EC2FF0E0EE0FFF1FF5
S11301C0E85EFD4F0190F081E02D8081C3DFCF5FB9
S11301D0C33090F3C8E1D2E0EE81FF818081BADFC1
S11301E0EE81FF818181B6DFE885F9858081B2DF08
S11301F0E885F9858181AEDFC5E00CC0EC2FF0E025
S1130200EE0FFF1FE85EFD4F0190F081E02D80812D
S1130210A1DFCF5FC83090F3C8E1D2E0E889F98963
S1130220808198DFE889F989818194DFEA89FB89F3
S1130230808190DFEA89FB8981818CDFEC89FD89EB
S1130240808188DFEC89FD89818184DFCBE00CC06B
S1130250EC2FF0E0EE0FFF1FE85EFD4F0190F08100
S1130260E02D808177DFCF5FCE3090F3C8E1D2E01C
S1130270EC8DFD8D80816EDFEC8DFD8D81816ADFDB
S1130280EE8DFF8D808166DFEE8DFF8D818162DFD3
S1130290C0E10CC0EC2FF0E0EE0FFF1FE85EFD4F55
S11302A00190F081E02D808155DFCF5FC33190F361
S11302B0C8E1D2E0EEA1FFA180814CDFEEA1FFA155
S11302C0818148DFE8A5F9A5808144DFE8A5F9A587
S11302D0818140DFEAA5FBA580813CDFEAA5FBA57F
S11302E0818138DFDF91CF910895CF93C0E00CC0B6
S11302F0EC2FF0E0EE0FFF1FE45FFD4F0190F08163
S1130300E02D808127DFCF5FC63090F3CF91089531
S1130310CF93C0E00CC0EC2FF0E0EE0FFF1FEA5FBC
S1130320FD4F0190F081E02D808114DFCF5FC33059
S113033090F3CF910895CF93C0E00CC0EC2FF0E080
S1130340EE0FFF1FE050FE4F0190F081E02D808101
S113035001DFCF5FC33090F3CF9108958CE692E034
S113036008DFFFDE12DF24DFC0DFD2DFE4DF88E650
S113037092E0FFDEF6CE08951F920F920FB60F9211
S113038011240BB60F922F933F934F935F936F9368
S11303907F938F939F93AF93BF93EF93FF9385EED8
S11303A099EF9093250180932401D8DFFF91EF9179
S11303B0BF91AF919F918F917F916F915F914F9179
S11303C03F912F910F900BBE0F900FBE0F901F9077
S11303D0189517B88FEF86B910BA8FB981B912B8CA
S11303E096E096BD14BC15BC8DB91EB8089583E083
S11303F085BDA89BFECF15BC85B3816085BB86E017
S113040086BD08951F93CF93DF93182FC0E0D0E0EB
S113041002C0EDDF2196812F90E0C817D907CCF3F5
S1130420DF91CF911F9108958F929F92AF92BF92C7
S1130430FF920F931F93CF93DF93162FEA01F22EAF
S1130440682F70E080E090E0F5D020E030E048ECE8
S113045052E45AD020E030E040E854E477D1BCD0F4
S11304604B015C01612F70E080E090E0E3D020E07C
S113047030E048EC52E448D020E030E040E854E476
S113048065D1AAD0CB01881999092F2D30E0B90183
S1130490C0D18B01CE01B901BCD1D62F9092990065
S11304A080929800C0E00BC0E8E9F0E0808191817F
S11304B0800F911F918380838D2FA4DFCF5FCF1591
S11304C098F3DF91CF911F910F91FF90BF90AF9060
S11304D09F908F9008957DDF39DE83E880939000AC
S11304E085E08093910086B1813031F428E040E4C6
S11304F05FE16AE58AE098DF86B1823071F7109295
S1130500990010929800E9CF0CD0E6C0DED040F0FC
S1130510D5D030F021F45F3F19F0C7C0511110C19C
S1130520CAC0EBD098F39923C9F35523B1F3951BB3
S1130530550BBB27AA2762177307840738F09F5F00
S11305405F4F220F331F441FAA1FA9F333D00E2E6F
S11305503AF0E0E830D091505040E695001CCAF7DC
S113056029D0FE2F27D0660F771F881FBB1F2617A1
S113057037074807AB07B0E809F0BB0B802DBF0174
S1130580FF2793585F4F2AF09E3F510568F08DC0B6
S1130590D7C05F3FECF3983EDCF38695779567957B
S11305A0B795F7959F5FC9F7880F911D9695879525
S11305B097F90895E1E0660F771F881FBB1F621744
S11305C073078407BA0720F0621B730B840BBA0B02
S11305D0EE1F88F7E095089598D088F09F5790F023
S11305E0B92F9927B751A0F0D1F0660F771F881F54
S11305F0991F1AF0BA95C9F712C0B13081F09FD093
S1130600B1E008959CC0672F782F8827B85F39F030
S1130610B93FCCF3869577956795B395D9F73EF4B2
S113062090958095709561957F4F8F4F9F4F08955A
S1130630E89409C097FB3EF4909580957095619578
S11306407F4F8F4F9F4F9923A9F0F92F96E9BB272E
S11306509395F695879577956795B795F111F8CFAA
S1130660FAF4BB0F11F460FF1BC06F5F7F4F8F4F15
S11306709F4F16C0882311F096E911C0772321F00B
S11306809EE8872F762F05C0662371F096E8862FA3
S113069070E060E02AF09A95660F771F881FDAF7FA
S11306A0880F9695879597F9089597F99F6780E83D
S11306B070E060E008959FEF80EC089500240A94B0
S11306C01616170618060906089500240A94121629
S11306D01306140605060895092E0394000C11F45C
S11306E0882352F0BB0F40F4BF2B11F460FF04C009
S11306F06F5F7F4F8F4F9F4F089557FD9058440F62
S1130700551F59F05F3F71F04795880F97FB991F6C
S113071061F09F3F79F08795089512161306140629
S1130720551FF2CF4695F1DF08C0161617061806B6
S1130730991FF1CF86957105610508940895E89491
S1130740BB2766277727CB0197F908950BD0C4CF31
S1130750B5DF28F0BADF18F0952309F0A6CFABCFA8
S11307601124EECFCADFA0F3959FD1F3950F50E08B
S1130770551F629FF001729FBB27F00DB11D639F4F
S1130780AA27F00DB11DAA1F649F6627B00DA11DF5
S1130790661F829F2227B00DA11D621F739FB00D9B
S11307A0A11D621F839FA00D611D221F749F33270B
S11307B0A00D611D231F849F600D211D822F762FA4
S11307C06A2F11249F5750408AF0E1F088234AF0A1
S11307D0EE0FFF1FBB1F661F771F881F91505040ED
S11307E0A9F79E3F510570F060CFAACF5F3FECF3AD
S11307F0983EDCF3869577956795B795F795E795D9
S11308009F5FC1F7FE2B880F911D9695879597F9E9
S11308100895AA1BBB1B51E107C0AA1FBB1FA61743
S1130820B70710F0A61BB70B881F991F5A95A9F795
S111083080959095BC01CD010895F894FFCFFA
S113083E69006A003D007A007B007C00C000C100A4
S113084EC200C800C900CA00440045006E0047003B
S113085E4800800081006F0088008A008C00B00080
S113086EB1007000B300B4009000910071009800C4
S113087E9A009C0021002200200027002800260058
S113088E0A010B0109012A002B0029003000310056
S113089E2F00070108010601454E44005354000081
S9030000FC
